:020000040800F2
:10000000101300200501000881340008892500082C
:1000100089330008B30A0008C53C0008000000004E
:10002000000000000000000000000000FD37000894
:10003000B50A000800000000C1370008FF370008BB
:100040001F0100081F0100081F0100081F01000810
:100050001F0100081F0100081F0100081F01000800
:100060001F0100081F0100081F0100081F010008F0
:100070001F0100081F0100081F0100081F010008E0
:100080001F0100081F0100081F0100081F010008D0
:100090001F0100081F0100081F0100081F010008C0
:1000A0001F0100081F0100081F0100081F010008B0
:1000B0001F010008653800081F0100081F01000823
:1000C0001F0100081F0100081F0100081F01000890
:1000D0001F0100081F010008B93C00081F010008AB
:1000E0001F0100081F0100081F010008DFF810D0E1
:1000F00000F07CFC0048004785520008AFF3008008
:10010000101300200648804706480047FEE7FEE738
:10011000FEE7FEE7FEE7FEE7FEE7FEE7FEE7FEE7B7
:1001200061380008ED000008202A04DB203A21FA9B
:1001300002F00021704721FA02F3D040C2F1200200
:100140009140084319467047D2B201E000F8012BF4
:10015000491EFBD270470022F6E710B513460A4647
:1001600004461946FFF7F0FF204610BDF0B480EAC0
:100170000102D40F4200B2EB410F02D20246084600
:1001800011464A0042D0C30DDDB2C1F3C752AD1AC9
:10019000202D35DAC1F3160141F4000204B15242B8
:1001A000C5F1200602FA06F12A411044B3EBD05FF4
:1001B00023D0C4B1012DA0EBC35009DCF0BC4FF03B
:1001C000004202EAC352DBB200F5000000F024BB9B
:1001D000400000F1807000EBC350A0F1807040EA55
:1001E000D170490009E0490841EAC071A0EBC35051
:1001F00000F50000400800EBC350F0BC00F003BB6A
:100200006142012202EB4101001BF6E7F0BC70479E
:1002100081F00041AAE780F00040A7E780EA0102F0
:1002200010B502F00043400022D04A001FD0010E5A
:1002300001EB1261C0F35600C2F3560240F4000015
:1002400042F40002A0FB022000047F39140400D015
:10025000401C50EA124001D44000491EC2B20C06B4
:1002600004EBD010401C4008802A02D003E000209C
:1002700010BD20F00100002900DA0020184310BD55
:1002800030B480EA010202F0004530F0004221F073
:10029000004013D090B1C30DD40DC2F31601C0F3CA
:1002A0001600E41A41F4000140F400027D3491424A
:1002B00001D3641C00E04900002C02DA30BC0020AD
:1002C00070474FF400000023914201D3891A034381
:1002D00040084FEA4101F7D151B1914202D14FF0AC
:1002E000004105E002D24FF0010101E06FF0010191
:1002F00003EBC450284430BC00F085BA420005D05E
:10030000C0F3C7525242914201DC0020704700EB1B
:10031000C15070472DE9FE4F804681EA0300C00FAF
:100320000C46009021F0004123F00045B8EB02009C
:10033000A94105D24046214690461C460B4602463E
:1003400023F00040104347D0270DC7F30A00C3F342
:100350000A510290401A019040286BDAC3F313004F
:1003600040F4801B0098924620B10023D2EB030A90
:1003700063EB0B0B01985946C0F14002504600F068
:1003800021FA06460D4650465946019A00F029FAD0
:1003900010EB08006141002487EA115284EAE773F8
:1003A0001A4340D0009A62B3019A012A4FEA0752D9
:1003B00015DC001B61EB02014FF0004202EA07521C
:1003C000CDE90042001C41F5801132462B4600F079
:1003D00060FA03B0BDE8F08F40462146F9E7001B04
:1003E00061EB0201001C41F5801300185B412018ED
:1003F000A2F5001747EB030140EAD570B6196D412D
:1004000011E06D084FEA360645EAC0754FEA07521B
:10041000001B61EB0201001C41F5801149084FEA05
:1004200030000019514132462B4603B0BDE8F04F71
:1004300000F020BA0098012240000023D0EB020215
:1004400063EBE073009821464FEAE074B8EB0000DC
:1004500061EB0401E9E783F000435BE781F00041D1
:1004600058E72DE9FE4F81EA030404F0004421F02F
:10047000004100944FF0000B23F0004350EA0104C8
:100480005ED052EA03045BD0C3F30A54C1F30A55A9
:100490002C44A4F2F3340194A0FB0254C1F31301E1
:1004A00041F48011C3F3130343F4801301FB0244AE
:1004B00000FB034E840A970A44EA815447EA8357B3
:1004C000A4FB076802958D0A05FB07854FEA932C6C
:1004D00004FB0C542705029D4FEA065847EA1637DD
:1004E000B5EB08056EEB070C870E920E47EA8117F5
:1004F00042EA8312A7FB0201B6EB0B0164EB000496
:100500002B0D43EA0C335E1844EB1C50DA4651467F
:10051000E7FB0201C5F313044FEA0B3343EA14531C
:100520004FEA0432019C43EA0603A4F10C0402944E
:10053000009CCDE900B400F0ACF903B0BDE8F08F49
:1005400000200146F9E72DE9F04D81EA030404F0AB
:10055000004B21F0004514464FF0000A23F0004103
:1005600050EA050220D054EA01021DD0C5F30A5713
:100570000246C5F31303C1F31300C1F30A5640F456
:10058000801543F48013A7EB0608101BD64608F22B
:10059000FD3873EB050002D308F1010801E0921861
:1005A0005B41B8F1000F03DA00200146BDE8F08D91
:1005B00000204FF48011064684460EE0171B73EBB3
:1005C000050705D3121B63EB050306434CEA010C38
:1005D00049084FEA300092185B4150EA0107EDD11B
:1005E00052EA030012D082EA040083EA05010843BC
:1005F00005D0101BAB4106D20122002306E00022E9
:100600004FF0004302E06FF0010253101AEB0600B6
:100610004CEB085110EB0A0041EB0B01BDE8F04D2B
:1006200000F028B9C10F80EAE0700844CA07962399
:10063000002100F0F1B896230022114600F0ECB83A
:1006400000F0004220F00040C10DC0F3160040F45D
:1006500000007F2901DA00207047962903DCC1F1F0
:100660009601C84001E096398840002AF4D0404203
:10067000704720F00040C10DC0F3160040F40000A8
:100680007F2901DA00207047962903DCC1F1960129
:10069000C840704796398840704770B5C1F30A5218
:1006A00001F000450024C1F3130140F2FF3341F48F
:1006B00080119A4201DA002070BD40F233439A4221
:1006C000A2F2334203DC5242FFF72EFD00E09040DD
:1006D0002C43F1D0404270BD00F0004230F00040A9
:1006E0000AD0C10D01F56071C0F3160042EA015154
:1006F000C20840071143704700200146704701F0CF
:10070000004330B421F0004150EA010206D00A0D46
:10071000A2F56072C1F31301002A02DC30BC002094
:100720007047440F44EAC104C100E01830BC00EB3C
:10073000C25000F068B830B50B46014600202022B8
:10074000012409E021FA02F59D4205D303FA02F5DE
:10075000491B04FA02F52844151EA2F10102F1DC3E
:1007600030BD2DE9F05F0546002092469B46884645
:100770000646814640241BE028464146474622461D
:10078000FFF7D2FC53465A46C01A914110D3114686
:100790001846224600F016F82D1A67EB01084F465E
:1007A00022460120002100F00DF817EB00094E4110
:1007B000201EA4F10104DFDC484631462A464346A8
:1007C000BDE8F09F202A04DB203A00FA02F1002065
:1007D00070479140C2F1200320FA03F3194390407F
:1007E0007047202A06DBCB17203A41FA02F043EA91
:1007F000E07306E041FA02F3D040C2F120029140DA
:100800000843194670470029A8BF7047401C49009B
:1008100008BF20F00100704710B4B0FA80FC00FA65
:100820000CF050EA010404BF10BC704749B1CCF190
:10083000200421FA04F411FA0CF118BF012121431C
:100840000843A3EB0C01CB1D4FEA00614FEA1020D7
:1008500042BF002010BC704700EBC3501044002979
:10086000A4BF10BC7047401C490008BF20F0010025
:1008700010BC704710B5141E73F1000408DA401C58
:1008800041F1000192185B411A4301D120F00100AF
:1008900010BD2DE9F04D92469B4611B1B1FA81F29F
:1008A00002E0B0FA80F220329046FFF78BFF044658
:1008B0000F4640EA0A0041EA0B0153465A460843F4
:1008C00013D0114653EA010019D0C8F14002504636
:1008D000FFF72AFC05460E46504659464246FFF7AA
:1008E00071FF084305D0012004E020463946BDE8E9
:1008F000F08D0020054346EAE0762C4337430A9802
:100900006305E40AA0EB08000022FD0A44EA47540C
:100910000A3002D500200146E9E7010510196941B6
:10092000DDE9084500196941BDE8F04DA2E770B561
:1009300021F0004303430CD0C1F30A550024D5EB4A
:10094000040564EB0403D617AD1AB34102DB0020A3
:10095000014670BD201841EB025170BDC1F30A522F
:10096000C1F3130140F2FF3341F480119A4202DADD
:1009700000200146704740F233439A42A2F23342CC
:1009800002DC5242FFF7D0BBFFF71CBF30B5041E9C
:1009900071F1000404DB4FF00044404264EB0101BC
:1009A000141E73F1000405DB1C464FF00043524255
:1009B00063EB04038B4208BF824230BD30B5041E96
:1009C00071F1000404DB4FF00044404264EB01018C
:1009D000141E73F1000405DB1C464FF00043524225
:1009E00063EB0403994208BF904230BD064C074DAB
:1009F00006E0E06840F0010394E8070098471034EF
:100A0000AC42F6D3FFF776FB485D0008685D00084E
:100A10002DE9F04D00231A461B1A8A4103DB002002
:100A20000146BDE8F08DC1F30A52C1F3130141F450
:100A300080154FF0000BD10702D100186D41521EF6
:100A40000027044640F2FF11384601EB620A3E4699
:100A50008046024600204FF48011FFF765FBC21963
:100A60007141BB1846EB0100B4EB030C75EB000CB5
:100A700004D3E41A65EB000517460E46241908F165
:100A800001006D4180463428E3DDF91946EB06008C
:100A9000091BA84103D24FF0FF32134601E00022A8
:100AA00013461BEB070046EB0A51BDE8F04DFFF77C
:100AB000E1BEFEE7704772B6FEE710B590F8211070
:100AC0000022022905D00421816380F82020012022
:100AD00010BD01680B6823F00E030B6001680B6802
:100AE00023F001030B6090F84030C46B012101FA40
:100AF00003F3636080F8211080F82020104610BDB9
:100B000010B590F821100024022903D0042181633C
:100B100001243DE001680A6822F00E020A600168C3
:100B20000A6822F001020A601A4A0168914201D162
:100B3000012121E0174A1432914201D110211BE01A
:100B4000144A2832914201D1891515E0114A3C32EC
:100B5000914201D189140FE00E4A5032914202D1E4
:100B60004FF4803108E00B4A6432914202D14FF4D5
:100B7000801101E04FF08071064A083A516001216E
:100B800080F82110002180F82010416B01B18847C6
:100B9000204610BD0800024070B5044600F00CF974
:100BA0000546601C02D004480078044400F004F9B3
:100BB000401BA042FAD370BD6C0000202DE9F84F15
:100BC000DFF8B891002409F1040A0AF1040B234666
:100BD0000F270BF1040EC9E00125A5402A40AA42C7
:100BE0007DD1674ED1F804C0ACEB0608B44532D0D5
:100BF00014DCBCF1030F3AD009DCBCF1000F2AD0A1
:100C0000BCF1010F1CD0BCF1020F31D11DE0BCF1D1
:100C1000110F17D0BCF1120F2AD119E0B8F5881FB7
:100C200019D006DCB8F5803F15D0B8F5801F1FD16C
:100C300011E0B8F5001F0ED0B8F5041F18D10AE076
:100C4000CB6815E0CB681B1D12E0CB6808330FE0C2
:100C5000CB680C330CE08B682BB1012B4FF00803F1
:100C600003D0456104E0042302E0056100E00023B5
:100C7000FF2A01D8064601E000F104064FEA840588
:100C800001D9A5F12005D6F8008007FA05FC28EA6D
:100C90000C0803FA05F548EA0508C6F800804D6817
:100CA000ED0062D5374DAE6946F00106AE61AD6923
:100CB00024F0030605F001050095334D06EB050C05
:100CC000DCF80850A607360F07FA06F825EA0805EB
:100CD000DFF8B880404503D14FF0000817E044E04A
:100CE000DFF8AC80404502D14FF001080FE0DFF89B
:100CF000A480404502D14FF0020808E0DFF8988058
:100D0000404502D14FF0030801E04FF0040808FA13
:100D100006F848EA0508CCF808804D68D9F8006064
:100D2000ED034D4601D5164300E096432E604D6815
:100D3000DAF80060AD03554601D5164300E096434E
:100D40002E604D68DBF80060ED025D4601D516436C
:100D500000E096432E604D68DEF80060AD027546F7
:100D600001D5164300E096432E60641C0D682A46A8
:100D7000E5407FF431AFBDE8F88F0000000401408A
:100D80000000111000100240000001400008014066
:100D9000000C01400010014000140140C26821EA2B
:100DA00002030A4043EA0241016170470AB101614E
:100DB00070470904FBE700000148806870470000A5
:100DC0006C00002070B5040025D094F83D0000258B
:100DD00020B984F83C50204600F078FA242084F8AA
:100DE0003D002068016821F0010101602068016870
:100DF00041F4004101602068016821F40041016074
:100E000000F0E6FB4D4A6168914201D84C4900E090
:100E10004C49884201D2012070BD4B492368B0FB88
:100E2000F1F15E6826F03F060E435E606368934210
:100E300006D94FF4967359434FF47A73B1FBF3F12B
:100E40002368491C1E6A26F03F0631431962616817
:100E5000914210D84900401EB0FBF1F2521CC2F37F
:100E60000B02042A01D2042022E0B0FBF1F0401C66
:100E7000C0F30B001CE0A268F2B301EBC10303EB6B
:100E80000116431EB3FBF6F35B1C43F480431B05C2
:100E900049D092B301EBC10202EB0111401EB0FB3D
:100EA000F1F0401CC0F30B0040F4804040F40040DF
:100EB0002168CA694CF6FF739A431043C861D4E9AC
:100EC000071001432068026822F0C002114301604C
:100ED000D4E9030101432068826848F2FF339A4352
:100EE00011438160D4E9050108432168CA6822F0F2
:100EF000FF021043C86001E00EE016E020680168C0
:100F000041F0010101602564202084F83D00256343
:100F100084F83E50002070BD01EB4106431EB3FB38
:100F2000F6F35B1CB3E70120C2E701EB4101401E71
:100F3000B0FBF1F0401CC0F30B00B7E7A086010046
:100F400080841E0000093D0040420F002DE9FF4F44
:100F500083B00025DDE910799A4693460446DDF812
:100F600048800095FFF728FF064694F83D002028AA
:100F70007CD11923012285492046009601F014FCFA
:100F80000028F5D194F83C0001286FD0012084F8A6
:100F90003C0020680168C90703D1016841F00101E4
:100FA00001602068016821F400610160222084F85A
:100FB0003D00402084F83E0025646762A4F82A9032
:100FC000608D20857248E062CDE9008653465A461E
:100FD0002046049901F0F0FA00287DD1208DDFF839
:100FE000B491202768B1012814D002282068016834
:100FF0001ED041F4806101602068416980690090E1
:10100000B6E02068416981690091016841F400718E
:101010000160ADE02068016821F48061016072B672
:101020002068416981690091016841F400710AE01A
:1010300041F40061016072B62068416981690091E4
:10104000016821F48061016062B691E0032868D8EC
:1010500001280CD0022843464FF0000249462046A2
:1010600000960FD001F0A0FBB0BB10E08BE0324641
:101070004146204601F017FC70BB20680069616A98
:1010800008706CE001F090FB30BB72B634E0206871
:10109000016821F48061016072B620680069616AAC
:1010A0000870606A401C6062208D401E2085608D43
:1010B000401E6085384846F2A8110068B0FBF1F088
:1010C000C0EBC00000EB80000090401E009008D0F4
:1010D00020684069C04300E029E040070CD5009833
:1010E000F3E744F8305F6773A573206940F0200090
:1010F000206162B625731AE02068016841F400712E
:10110000016020680069616A0870606A401C606262
:10111000218D491E2185618D491E618562B6216838
:101120001BE032464146204601F0BDFB18B10120CC
:1011300007B0BDE8F08F20680069616A0870606AD6
:10114000401C6062218D491E2185618D491E61858B
:1011500021684A69D24352070AD409690170606A5A
:10116000401C6062208D401E2085608D401E608581
:10117000208D00287FF46AAF84F83D7084F83E50DB
:1011800084F83C50D4E70220D2E7000002001000AF
:101190000000FFFF04000100780000202DE9FF4F50
:1011A00083B09A46DDE9119793460446DDF8408006
:1011B000FFF702FE054694F83D0020287FD1192351
:1011C000012240492046009501F0EEFA002876D130
:1011D00094F83C00012872D0012084F83C0020687B
:1011E0000168C90703D1016841F00101016020686D
:1011F000016821F400610160212084F83D00402055
:1012000084F83E0000262664C4F82480A4F82A90BE
:10121000608D20852C48E062CDE9007553465A4622
:101220002046049901F046FA70B930E02A46394662
:10123000204601F06BFB58B1206C042804D12068D3
:10124000016841F400710160012007B0BDE8F08F32
:10125000606A216800780861606A401C6062218DC4
:10126000491E89B22185628D521E628522685369AA
:10127000DB435B070BD469B100781061606A401CE6
:101280006062208D401E2085608D401E6085208D0F
:101290000028CBD12A463946204601F05FFA0028C3
:1012A000CAD154F83D0B016841F40071016020205F
:1012B00004F81E09E67766770020C6E7FFE70220FC
:1012C000C3E70000020010000000FFFF30B585B04A
:1012D00000210091019102910391214D0368214C5D
:1012E000122103222048AB421DD1A36943F0080319
:1012F000A361A369039203F0080304931302CDE9E9
:1013000000316946FFF75AFC1848416841F0E06136
:1013100041F002014160E06940F40010E061E069E1
:1013200000F4001019E0124DAB4217D1A36943F04D
:101330000803A361A369039203F0080304934FF425
:101340004063CDE900316946FFF738FCE06940F4BD
:101350008000E061E06900F48000049005B030BDD9
:101360000054004000100240000C01400000014009
:10137000005800400248816802781144816070473B
:101380006C000020074810B5016841F010010160B1
:10139000032000F075F80F2000F006F800F024F8A4
:1013A000002010BD0020024070B50D4D04464FF4E2
:1013B0007A712878B1FBF0F00A490968B1FBF0F0C6
:1013C00000F0ECFA48B9102C07D200222146501E3A
:1013D00000F036F800206C6070BD012070BD000088
:1013E0006C000020780000200C4808B5816941F0AD
:1013F00001018161816901F001010091C16941F040
:101400008051C161C06900F080500090044841687B
:1014100021F0E06141F00071416008BD0010024020
:1014200000000140002809DB00F01F02012191406B
:101430004009800000F1E020C0F800117047000072
:10144000F0B40E4B1B680C46C3F30223C3F107052F
:10145000042D00D90425191D072901D2002300E01D
:10146000DB1E012606FA05F1491E214099409E40E7
:10147000761E16403143F0BC02F05BBD0CED00E07F
:10148000064900F0070208684FF6FF03184040EADB
:101490000220034A10430860704700000CED00E092
:1014A0000000FA052DE9F0470F46050061D0434ED4
:1014B000306800F00700B84209D2306820F0070019
:1014C00038433060306800F00700B84251D12868D6
:1014D0003B4C810712D5400703D5606840F4E060BB
:1014E00060602878000703D5606840F46050606051
:1014F0006068A96820F0F000084360602878C007A1
:1015000028D06868012810D02168022810D08907E7
:1015100000292EDA616821F0030101436160FFF7C1
:101520004BFC804641F288390DE021688903EFE7E2
:101530008901EDE7FFF740FCA0EB0801494502D91E
:101540000320BDE8F0876068696800F00C00B0EB2C
:10155000810FEFD1306800F00700B8420BD9306836
:1015600020F0070038433060306800F00700B842D0
:1015700001D00120E5E72878400705D56068E968D3
:1015800020F4E060084360602878000706D56068B2
:10159000296920F4605040EAC100606000F038F82A
:1015A0006168084AC1F30311515CC84006490860EC
:1015B00006480068FFF7F8FE0020C2E7002002405E
:1015C000001002403A5C0008780000207000002003
:1015D0000448054900684968044AC1F30221515C86
:1015E000C840704778000020001002404A5C0008A4
:1015F0000448054900684968044AC1F3C221515CA6
:10160000C840704778000020001002404A5C000883
:1016100012A185B00FC98DE80F0014A0144A00680C
:1016200004905168134801F00C03042B10D0082BD0
:101630000ED1C1F38343C9031DF803000AD55168D5
:1016400004AAC1F34041515C0A4A5043B0FBF1F097
:1016500005B0704708494843FAE700000203040553
:10166000060708090A0B0C0D0E0F101001020000EE
:101670000010024000127A0000093D002DE9F84FE9
:10168000040070D02078C04DC00749D06868C0F30E
:101690008100012807D06868C0F38100022809D1C1
:1016A0006868C00306D52868800339D560680028BB
:1016B000E7D035E06068B0F5803F0BD010B1B0F5F1
:1016C000A02F11D0286820F480302860286820F4EA
:1016D000802002E0286840F480302860606890B183
:1016E000FFF76AFB06460AE0286840F4802028607D
:1016F000F0E700BFFFF760FB801B642873D8286801
:101700008003F7D50CE0FFF757FB064605E000BF66
:10171000FFF752FB801B6428F0D828688003F7D4B9
:1017200020789A4E80074FF001094FF0000839D514
:10173000686810F00C0F07D06868C0F381000228B9
:1017400009D16868C00306D42868800714D52069C9
:10175000012808D110E02069B0B1C6F80090FFF769
:101760002BFB074605E00AE1FFF726FBC01B02281A
:10177000C4D828688007F7D52868616920F0F80088
:1017800040EAC10028600DE0C6F80080FFF714FBB6
:10179000074604E0FFF710FBC01B022823D8286887
:1017A0008007F7D4207800072CD57948A169D9B1F2
:1017B000C0F80090FFF700FB074604E0FFF7FCFAD3
:1017C000C01B02280FD8686A8007F7D571484FF40C
:1017D000FA510068B0FBF1F0009000BF0098411E84
:1017E0000091FAD20EE080E0C0F80080FFF7E4FA42
:1017F000074604E0FFF7E0FAC01B022875D8686AC4
:101800008007F7D42078400760D5E8690027C0003A
:1018100008D4E86940F08050E861E869012700F0E9
:10182000805000905C480168C90513D40168834664
:1018300041F480710160FFF7BFFA824606E000BF05
:10184000FFF7BAFAA0EB0A0064284ED8DBF80000D4
:10185000C005F5D5E06801280AD008B1052813D0E5
:10186000286A20F001002862286A20F0040002E0C3
:10187000286A40F001002862E06841F2883B98B194
:10188000FFF79AFA82460BE0286A40F004002862CB
:10189000EEE700BFFFF790FAA0EB0A0159455AD8CE
:1018A000286A8007F6D50CE0FFF786FA824605E045
:1018B000FFF782FAA0EB0A0159454CD8286A800745
:1018C000F6D41FB1E86920F08050E861E06988B380
:1018D0006968C1F38101022944D00228C6F86080FA
:1018E00004D0FFF769FA044638E034E0FFF764FA01
:1018F000074604E0FFF760FAC01B02282BD82868CF
:101900008001F7D4206AB0F5803F05D16868A168EE
:1019100020F4003008436860D4E90801084369688E
:1019200021F4741108436860C6F86090FFF744FA28
:10193000044606E025E000BFFFF73EFA001B022840
:1019400009D828688001F7D51BE000BFFFF734FAFB
:10195000001B022802D90320BDE8F88F2868800107
:10196000F4D40EE00128F7D06868226A00F48031D0
:10197000914204D1616A00F47010884201D00120C4
:10198000EAE70020E8E700000010024000004242C1
:1019900080044242780000200070004010B5401ED4
:1019A000B0F1807F01D3012010BD4FF0E0246061D1
:1019B0000F21601702F0BDFA0020A061072020610E
:1019C000002010BD7047704770B590F83C20012A88
:1019D00026D0012480F83C40022280F83D20036894
:1019E0005A689D6822F070060A6832435A600D4BAF
:1019F00002689A4208D0B2F1804F05D00A4B9A4251
:101A000002D00A4B9A4204D1496825F08003194359
:101A1000916080F83D40002180F83C10084670BD80
:101A2000022070BD002C014000040040000800406E
:101A300010B5040003D094F83D0010B107E0012078
:101A400010BD002084F83C00204600F01FF8022062
:101A500084F83D00211D206801F00AFF012084F870
:101A6000460084F83E0084F83F0084F8400084F883
:101A7000410084F8420084F8430084F8440084F86C
:101A8000450084F83D00002010BD000008B5006846
:101A90000B49884212D10B48C16941F00201C16172
:101AA000C069002200F00200009006211D20FFF70F
:101AB000C7FCBDE808401D20FFF7B4BC08BD00000E
:101AC000000400400010024090F83D10012901D0B0
:101AD00001207047022180F83D100168CA6842F079
:101AE0000102CA6000680B49884208D0B0F1804FFB
:101AF00005D00949884202D00849884204D181684A
:101B000001F00701062903D0016841F001010160DD
:101B100000207047002C01400004004000080040F5
:101B200070B5044690F83C00012817D0012584F8D0
:101B30003C50022084F83D002068826822F0770241
:101B400022F47F4282600868502830D00DDC2028C3
:101B50004DD005DC98B310283BD148E0022070BD81
:101B6000302844D0402834D139E0602828D070286B
:101B700006D0B0F5805F2CD0B0F5005F29D10AE027
:101B8000CB68D1E90121206801F0B5FE20688168A9
:101B900041F0770109E0CB68D1E90121206801F02B
:101BA000AAFE2068816841F48041816011E0CA6822
:101BB0004968206801F054FF5021206807E016E0D2
:101BC000CA684968206801F05CFF6021206801F064
:101BD0009CFE84F83D50002084F83C0070BDCA682B
:101BE0004968206801F03CFF40212068EFE7226847
:101BF00001461046EBE72DE9F0410D46040003D005
:101C000094F83D0018B108E00120BDE8F081002003
:101C100084F83C00204600F041F8022084F83D00A2
:101C20002068816844F2070291438160211D206889
:101C300001F01EFE226890689169166A2B68AF69F0
:101C4000034340F20330814341EA0721A868EF696A
:101C500008434FF6FC418843E96840EA0720014306
:101C600028692F6A000140EA0730084369686D69F6
:101C700026F0220646EA0515294393602268906102
:101C800054F8460B0162012004F81F09E075207624
:101C9000E0762077A0750020B7E7000000B585B09A
:101CA00000210091019102910391194B0268194999
:101CB00019489A4212D18A6942F400628A618A699B
:101CC00002F4006204928A6942F004028A6189691E
:101CD00001F0040104914FF4407113E0B2F1804F20
:101CE00014D1CA6942F00102CA61CA6902F0010254
:101CF00004928A6942F004028A61896901F0040150
:101D00000491032100916946FEF758FF05B000BD1C
:101D1000002C0140001002400008014070B590F80E
:101D20003E60044690F83F5090F8423090F84320CF
:101D3000022021B104290ED0012E1BD114E0012E66
:101D400018D1012B16D184F83E0084F842000122FC
:101D50000021206820E0012D0CD1012A0AD184F84D
:101D60003F0084F8430014E0012D03D1012B01D181
:101D7000012A01D0012070BD84F83E0084F83F00A4
:101D800084F8420084F8430001220021206801F019
:101D9000A5FD01220421206801F0A0FD2068016852
:101DA00041F001010160002070BD704770B504462C
:101DB000006801694FF00005C943890715D4C1685F
:101DC000C943890711D4E91E0161012020772068E9
:101DD00080698007204602D0FFF7E7FF04E000F0AB
:101DE000BFF8204600F04EF9257720680169C94305
:101DF000490717D4C168C943490713D46FF00401D8
:101E00000161022020772068806910F4407F20461D
:101E100002D0FFF7CAFF04E000F0A2F8204600F06D
:101E200031F9257720680169C943090716D4C168CB
:101E3000C943090712D46FF008010161042020771B
:101E40002068C0698007204602D0FFF7AEFF04E09B
:101E500000F086F8204600F015F925772068016922
:101E6000C943C90617D4C168C943C90613D46FF062
:101E700010010161082020772068C06910F4407FBC
:101E8000204602D0FFF791FF04E000F069F82046F9
:101E900000F0F8F8257720680169C943C90708D11F
:101EA000C168C943C90704D1891E0161204600F0F9
:101EB00039F920680169C943090609D4C168C943D1
:101EC000090605D46FF0800101612046FFF77AFD15
:101ED00020680169C943490609D4C168C943490654
:101EE00005D46FF040010161204600F075F92068CB
:101EF0000169C94389060BD4C168C943890607D45F
:101F00006FF0200101612046BDE87040FFF75BBD26
:101F100070BD000000B585B00021009101910291D3
:101F2000039100680B49884212D10B48816941F046
:101F3000040181618069694600F004000490C020BA
:101F4000009002200190032003900448FEF736FE23
:101F500005B000BD00040040001002400008014030
:101F6000704770B5044690F83C000D4601280AD031
:101F7000012084F83C0042B1042A18D0082A2AD053
:101F80000C2A4DD139E0022070BD206801F0C6FC5A
:101F90002068816941F0080181612068816921F030
:101FA00004018161206881692A69114311E0206878
:101FB00001F0DCFC2068816941F4006181612068E6
:101FC000816921F480618161206881692A6941EA1F
:101FD0000221816124E0206801F0F4FC2068C169DD
:101FE00041F00801C1612068C16921F00401C161AB
:101FF0002068C1692A69114311E0206801F00EFDD3
:102000002068C16941F40061C1612068C16921F49F
:102010008061C1612068C1692A6941EA0221C16108
:10202000002084F83C0070BD10B5040003D094F883
:102030003D0010B107E0012010BD002084F83C00F5
:10204000204600F01EF8022084F83D00211D206883
:1020500001F00EFC012084F8460084F83E0084F86C
:102060003F0084F8400084F8410084F8420084F87E
:10207000430084F8440084F8450084F83D000020C3
:1020800010BD70477047000010B50446022249B1E8
:1020900004290ED0082913D094F84100012816D045
:1020A000012010BD94F83E000128F9D184F83E20AB
:1020B0000FE094F83F000128F2D184F83F2008E0B7
:1020C00094F840000128EBD184F8402001E084F826
:1020D00041200122206801F001FC0F49206888425C
:1020E00003D1426C42F4004242642068884208D026
:1020F000B0F1804F05D00949884202D00849884292
:1021000004D1816801F00701062903D0016841F07C
:1021100001010160002010BD002C014000040040BE
:102120000008004070B522490068096888423ED125
:10213000204A214C1078401CC0B21070142820D3C3
:10214000608820801D4801680868C0F30010A072F4
:10215000486A6080A0F5C240A838A08146F2A81560
:102160004D6217484188018016490B681968C1F310
:1021700000118172596A4180491B81815D62002092
:102180001070114800F038FE0F4800F0E5FB0E48D3
:1021900040680E498861B4F90C00FEF743FA0C4917
:1021A0008861BDE8704000210A4801F08DBD70BD16
:1021B0008402002068000020C0000020F4010020FC
:1021C000D00000203C02002098000020E000002009
:1021D000080100209A9999BF704770477047000026
:1021E000F8B5026804461068D168536910F00F0F03
:1021F0004FF0000553D003F0010601F49077374308
:102200005FD0C20705D0CA0503D5226C42F0010297
:102210002264420705D5DA0703D0226C42F002029D
:102220002264820705D5DA0703D0226C42F004024B
:102230002264020707D501F02002324303D0226C4A
:1022400042F008022264226C002A34D0800604D5B1
:10225000880602D5204601F046FC20684069216CC2
:10226000C0F38010090700D430B3204601F023FCEE
:102270002068416949061BD5416921F0400141614F
:10228000A06BA8B158494163A06BFEF739FC002848
:1022900011D0A06B416B01B0BDE8F0400847830648
:1022A0000FD58B060DD52046BDE8F84001F01BBCCC
:1022B0002046FFF793FFF8BD2046FFF78FFF256408
:1022C000F8BD266B2023012E52D1C60650D5CE066E
:1022D0004ED5106850680090506940062AD5A16B11
:1022E000086840680004000CEAD0A68D8642E7D951
:1022F000E0858869202818D0D06820F48070D060EC
:102300002068416921F0010141612068416921F0A3
:102310004001416184F83E3025632068C16821F0A6
:102320001001C160A06BFEF7C8FBA08DE18D401AC3
:1023300081B219E0A08DE18D401A81B2E08D0028B4
:10234000BED00029BCD0D06820F49070D060206846
:10235000426922F00102426184F83E302563206820
:10236000C26822F01002C2602046FFF736FFF8BDB7
:1023700005062BD50D0629D594F83D002128F6D168
:10238000A068B0F5805F01D12069B0B1206A411C1E
:102390002162216800784860E08C401E0004000C37
:1023A000E084E4D12068C16821F08001C160206828
:1023B000C16841F04001C160F8BD206A0088C0F3E7
:1023C00008005060206A801C2062E5E74006F3D5D3
:1023D0004806F1D5D168204621F04001D16084F84B
:1023E0003D3000F0D0F8F8BDA73A000870B5040001
:1023F00004D094F83D00002510B106E0012070BD26
:1024000084F83C50204600F023F8242084F83D0056
:102410002068C16821F40051C160204601F0BEFB74
:102420002068016921F4904101612068416921F02F
:102430002A0141612068C16841F40051C1602564EE
:10244000202084F83D0084F83E00002070BD00008C
:1024500030B585B000240094019402940394006880
:10246000184988422BD11848C16941F40031C16133
:10247000C16901F400310491816941F00401816175
:102480008069124D00F004000490042000900220A6
:1024900001900320039069462846FEF78FFB082031
:1024A000CDE90004694628460294FEF787FB002226
:1024B00007212620FEF7C4FF2620FEF7B3FF05B054
:1024C00030BD000000440040001002400008014000
:1024D000704700002DE9F843044690F83D001F4680
:1024E00016460D4620284CD1C5B1BEB194F83C002B
:1024F000012846D0012084F83C004FF00008C4F8C1
:102500004080212084F83D00FEF756FCA6848146D9
:10251000E684A068B0F5805F03D004E00120BDE848
:10252000F883206928B12E465FF0000584F83C80CE
:102530000EE00026FAE78021204601F08BFBA0B9CF
:10254000AEB116F8010B21684860E08C401EE084B3
:10255000E08C4B464FF0000200970028EBD14FF083
:102560004001204601F076FB30B10320D7E735F873
:10257000020BC0F30800E6E7202084F83D000020AD
:10258000CDE70220CBE77047FEE701684A69D243F6
:1025900052050FD46FF480624A61002140F8301F69
:1025A000202242738173026942F0040202610173C6
:1025B00001207047002070472DE9F84F044600685D
:1025C00089460B9D01689846174641F48061016079
:1025D0002068016841F48071016000954FF0011B93
:1025E0000022594620460A9B00F0DEF84FF4007A9C
:1025F00040B120680068C00501D5C4F840A00320A0
:10260000BDE8F88F216809F0FE0008612B462849D3
:1026100020460A9A00F0FCF8F0BB20684169806906
:1026200000902A4620460A9900F070F940B1206CCB
:1026300004283AD12068016841F40071016034E057
:10264000FEB2B8F1010F09D02168380A08612A46A4
:1026500020460A9900F05AF90028E8D1206806615E
:102660002A4620460A9900F051F90028DFD1206857
:10267000016841F4807101600095002259462046AE
:102680000A9B00F091F80028B3D1216809F0FF00FF
:1026900040F00100086100E007E02B4604492046B5
:1026A0000A9A00F0B5F80028AAD00120A8E7000097
:1026B000020001002DE9F843044600680D46DDE9FB
:1026C000089701689846164641F4807101604B46B0
:1026D00000224FF001112046009700F065F848B144
:1026E00020680068C00502D54FF400702064032004
:1026F000BDE8F883216805F0FE0008613B464A46C4
:102700001549204600F084F888B92068416980693D
:1027100000903A464946204600F0F8F848B1206C4F
:10272000042804D12068016841F40071016001208F
:10273000DEE7F5B2B8F1010F09D02168300A08616F
:102740003A464946204600F0E1F80028E7D12068E3
:1027500005610020CCE700000200010070B51646BC
:102760000D4604460DE02046FFF70FFF08B101209B
:1027700070BD681C05D0FEF71FFB801BA84207D860
:1027800035B120684069C0434007ECD4002070BDDB
:10279000002044F8300F20216173A073216941F0BB
:1027A000200121612073E2E72DE9F0471E469046A3
:1027B0000D460446C1F30747DDF8209008E0701C81
:1027C00006D0FEF7F9FAA0EB0900B0420FD876B1B7
:1027D0002068012F18D0806925EA00000004000C51
:1027E00014D000214145EAD00020BDE8F087002048
:1027F00044F8300F20216173A073216941F020015A
:10280000216120730120F0E74069E5E70121E9E754
:102810002DE9F0479A4691460E46044600254FF0B2
:102820002008C1F3074725E020684069C043400500
:1028300014D42068016841F40071016021686FF4CC
:1028400080604861256384F83D8084F83E50206CA8
:1028500040F00400206484F83C501FE0B9F1FF3FD1
:1028600008D0FEF7A9FAA0EB0A0149450CD8B9F146
:10287000000F09D02068012F13D0806926EA0000DC
:102880000004000C0BD0CFE744F8305F84F80D80D3
:10289000A573206940F02000206125730120BDE868
:1028A000F0874069EAE72DE9F041002590460E46A1
:1028B0000446202717E04069C043C0060CD454F8F2
:1028C000301B6FF01000486144F810596777A57706
:1028D000206A2062257717E0FEF76EFAA0EB080069
:1028E000B04208D83EB120684169C9434906E2D4E4
:1028F0000020BDE8F08144F8305F6773A57320695C
:1029000040F02000206125730120F2E770B51646E3
:102910000D4604460DE02046FFF737FE08B10120C2
:1029200070BD681C05D0FEF747FA801BA84207D887
:1029300035B120684069C0430006ECD4002070BD6A
:10294000002044F8300F20216173A073216941F009
:10295000200121612073E2E72DE9F04FDFF8849434
:10296000DFF87CA48BB0D9F8081005464C46D9F89E
:102970000000FDF753FCE16806466068FDF74EFC79
:102980003146FDF745FC0121FDF7B8FC0490E168F4
:10299000A068FDF743FC616806462068FDF73EFC31
:1029A0003146FDF7E3FB0121FDF7A8FC0590A16886
:1029B000A068FDF733FC616806466068FDF72EFCF1
:1029C0003146FDF7D3FB0121FDF798FC4FF07E5116
:1029D000FDF721FC0690B5F91000FDF723FE044633
:1029E000B5F91000FDF71EFE2146FDF717FC06465F
:1029F000B5F90E00FDF716FE0446B5F90E00FDF719
:102A000011FE2146FDF70AFC0446B5F90C00FDF75E
:102A100009FE0746B5F90C00FDF704FE3946FDF73F
:102A2000FDFB2146FDF7A2FB3146FDF79FFB00F0C1
:102A3000C9FEA9F1540B0446CBF808005E46B5F96F
:102A40000C00FDF7EFFD2146FDF7E8FB0790B5F917
:102A50000E00FDF7E7FD2146FDF7E0FB0890B5F914
:102A60001000FDF7DFFD2146FDF7D8FB0990059921
:102A70000998FDF7D3FB069904460898FDF7CEFBAD
:102A80002146FDF7C5FB029006990798FDF7C6FBA6
:102A9000049904460998FDF7C1FB2146FDF7B8FBF0
:102AA000039004990898FDF7B9FB05990446079827
:102AB000FDF7B4FB2146FDF7ABFB0490029871686B
:102AC0008846FDF7ABFBC84C2168FDF74FFB074676
:102AD000206003984146FDF7A1FB6168FDF746FBC6
:102AE0000646606004984146FDF798FBA168FDF733
:102AF0003DFBA06002998046DBF800000190FDF7E5
:102B00008DFB0446B5F91200FDF78CFDDFF8DCB251
:102B10005946FDF783FB2146FDF728FB3946FDF7B3
:102B200025FB029003990198FDF778FB0446B5F95F
:102B30001400FDF777FD5946FDF770FB2146FDF7C0
:102B400015FB3146FDF712FB039004990198FDF740
:102B500065FB0446B5F91600FDF764FD5946FDF71F
:102B60005DFB2146FDF702FB4146FDF7FFFA0490AD
:102B700004994C46D9F80C00FDF750FB0399064622
:102B8000A068FDF74BFB07466068029980F00040A3
:102B9000FDF744FB3946FDF73BFB3146FDF738FBBB
:102BA0005146FDF73BFB04998146A068FDF736FBD3
:102BB00003990746E068FDF731FB02990646206855
:102BC000FDF72CFB3146FDF723FB3946FDF7CEFA26
:102BD0005146FDF723FB049980466068FDF71EFB14
:102BE000039907462068FDF719FB02990646E0683D
:102BF000FDF714FB3146FDF7B9FA3946FDF708FB3E
:102C00005146FDF70BFB049907462068FDF706FBCC
:102C100002990646A068FDF701FB039983466068A8
:102C2000FDF7FCFA5946FDF7F3FA3146FDF79EFA37
:102C30005146FDF7F3FA064620684946FDF796FA35
:102C4000206060684146FDF791FA6060A0683946EF
:102C5000FDF78CFAA060E0683146FDF787FAE06086
:102C6000E168E068FDF7DAFAA1688046A068FDF740
:102C7000D5FA616807466068FDF7D0FA2168064614
:102C80002068FDF7CBFA3146FDF770FA3946FDF7BB
:102C90006DFA4146FDF76AFA00F094FD0646206899
:102CA0003146FDF7BBFA206060683146FDF7B6FAA1
:102CB0006060A0683146FDF7B1FAA060E068314677
:102CC000FDF7ACFAE060E0680121FDF717FBE16871
:102CD000FDF7A4FA0646A0680121FDF70FFBA168E5
:102CE000FDF79CFA4FF07E584146FDF794FA3146C5
:102CF000FDF78EFA074620680121FDF7FFFAE1682B
:102D0000FDF78CFA064660680121FDF7F7FAA16825
:102D1000FDF784FA3146FDF729FA394602F036F913
:102D20003349FDF77BFAA86060680121FDF7E6FAF8
:102D3000E168FDF773FA064620680121FDF7DEFA27
:102D4000A168FDF76BFA3146FDF762FAFDF7C4FCA6
:102D500001F006FEDFF89CA04FF000594A465346AA
:102D6000FDF77FFBFDF7CBFC2860A0680121FDF794
:102D7000C5FAA168FDF752FA064660680121FDF721
:102D8000BDFA6168FDF74AFA4146FDF744FA31465B
:102D9000FDF73EFAFDF7A0FC074620680E4601212C
:102DA000FDF7ACFA6168FDF739FA8046A0680121A9
:102DB000FDF7A4FAE168FDF731FA4146FDF7D6F9CF
:102DC000FDF78AFC3A46334602F012F84A4653466B
:102DD000FDF747FBFDF793FC68600BB0BDE8F08F93
:102DE0000AD7233B540000208C0000202E9E8B3AF3
:102DF000E12E6542DCA54C402DE9F041044600F18E
:102E00001803DFF8388106223B21682000F0ECF837
:102E100004F11E0306224321682000F0E5F8607EDD
:102E2000217E40EA012024F80C0FE07BA17B40EAE0
:102E300001206080607C217C40EA0120A080E07C51
:102E4000A17C40EA0120E080607D217D40EA0120F4
:102E50002081E07DA17D40EA01206081B4F900007D
:102E6000FDF7E0FB0146364802F0E2F9344DA86870
:102E7000FDF7E6FB2080B4F90200FDF7D3FB014625
:102E800005F1180002F0D4F9286AFDF7D9FB60803B
:102E9000B4F90400FDF7C6FB014605F1300002F06D
:102EA000C7F9A86BFDF7CCFBA080B4F90600FDF7CD
:102EB000B9FB4146FDF7B2F9224D234F064639468C
:102EC0002868FDF7ABF93146FDF750F9FDF7B8FB7F
:102ED000E080B4F90800FDF7A5FB4146FDF79EF937
:102EE000064639466868FDF799F93146FDF73EF91F
:102EF000FDF7A6FB2081B4F90A00FDF793FB4146DC
:102F0000FDF78CF906463946A868FDF787F9314682
:102F1000FDF72CF9FDF794FB6081B4F90600FDF78D
:102F200081FB2860B4F90800FDF77CFB6860B4F908
:102F30000A00FDF777FBA860BDE8F0819A99193E79
:102F40000C000020800000209A99593F10B5802184
:102F50006B2000F093F84FF47A742046FDF71CFEC6
:102F600000216B2000F08AF86B2000F02BF8032082
:102F700000F04FF8012000F047F8204600F066F816
:102F80000021382000F07AF800216A2000F076F85D
:102F90000021232000F072F88021372000F06EF825
:102FA000752000F00FF868280BD101216B2000F08C
:102FB00065F800216C2000F061F8204600F046F82A
:102FC000002010BD1FB5FF23012203A98DE80E00CC
:102FD00013460246D0210348FDF7B8FF9DF80C00C8
:102FE00004B010BD4C0100200EB5FF20CDE9003229
:102FF00002900A460123D0210248FDF7A7FF0020D6
:103000000EBD00004C010020C006010E1C2000F087
:1030100035B8C006010E1B2000F030B8BC2801D323
:10302000012110E0622801D302210CE02A2801D3FB
:10303000032108E0142801D3042104E00A2801D365
:10304000052100E006211A2000F018B810B504464A
:103050004FF47A70844201D9044602E0042C00D275
:103060000424B0FBF4F0401EC1B2192000F006F8B1
:103070006008BDE81040FFF7D1BF000003B583B082
:10308000FF23012204A98DE80E0013460246D02139
:103090000248FEF783F805B0002000BD4C01002077
:1030A0002DE9F04385B0002000900190029003903C
:1030B0002448816941F010018161816901F01001AA
:1030C0000491816941F020018161816901F0200151
:1030D0000491816941F004018161816901F0040179
:1030E0000491816941F0080181618069DFF85880AD
:1030F00000F008004FF4005404900022214640469E
:10310000FDF754FEDFF844904FF2020700223946E3
:103110004846FDF74BFE009401AA01240225032630
:1031200082E8700069464046FDF748FD01AA009715
:1031300082E8700069464846FDF740FD05B0BDE8ED
:10314000F08300000010024000100140000C01401C
:103150000D4810B50B4901600C49416000214FF446
:1031600080428160C0E9031241618161C1610162F5
:10317000FDF728FE002803D0BDE81040FDF79BBCFA
:1031800010BD0000005400404C010020801A0600D1
:103190000D4810B50B4901600C49416000214FF406
:1031A00080428160C0E9031241618161C1610162B5
:1031B000FDF708FE002803D0BDE81040FDF77BBCFA
:1031C00010BD000000580040A0010020801A060039
:1031D00010B58CB024216846FCF7BDFF00241648CA
:1031E000099414490A94C0E900144CF24F31C0E923
:1031F00002410461446184610320CDE9000401209F
:10320000CDE902040494CDE90540079469460A48D3
:103210000894FEF7F0FC08B1FDF74DFC099409A9EC
:1032200005480A94FEF7D0FB002801D0FDF743FCC7
:103230000CB010BD002C0140F401002010B58CB082
:1032400024216846FCF787FF0024154809944FF0B5
:1032500080410A94C0E900144CF24F31C0E90241A8
:10326000046184610320CDE900040120CDE902045A
:103270000494CDE905400794694609480894FEF78F
:10328000BAFC08B1FDF717FC099409A904480A948F
:10329000FEF79AFB002801D0FDF70DFC0CB010BD25
:1032A0003C02002010B58EB00024079408940994C5
:1032B0000A940B941C2168460C94FCF74CFF23489D
:1032C000214901604721C0E9011441F28731C0E979
:1032D000031480218161FEF7ABFB08B1FDF7EBFB26
:1032E0004FF48050079007A91848FEF719FC08B161
:1032F000FDF7E1FB1548FEF797FE08B1FDF7DBFB94
:103300000B940BA911480C94FEF75EFB08B1FDF776
:10331000D2FB6020CDE900040294002269460B48EC
:103320000494FEF71EFE08B1FDF7C5FB04226946B2
:103330000648FEF716FE08B1FDF7BDFB0348FEF791
:10334000E9FD0EB010BD0000000400408402002022
:103350000C4810B50A4901604FF4E1214160002199
:1033600081600C22C160C0E904128161C161FFF774
:103370003DF8002803D0BDE81040FDF79CBB10BD10
:1033800000440040CC020020FEE7000070B5214D53
:10339000002202212846FDF709FD1F49012001F105
:1033A000100288730220907300240C8014804C80DB
:1033B0001A49548046F2A8100968486218490968F9
:1033C00048623C211548FEF7A9FC3C211448FEF751
:1033D000A5FC144801684C6300688463002111480F
:1033E000FEF752FE04210F48FEF74EFE0D48FEF791
:1033F0006BFB0121084800F017F807480121103045
:1034000000F012F82846BDE8704001220221FDF7C5
:10341000CDBC0000000C0140C0000020F4010020E1
:103420003C0200208402002070B58172807B134C26
:10343000012808D0022805D140034500022909D0FF
:1034400001290ED070BD4FF480504500022908D0EC
:103450000129F7D1014601222046FDF7A7FC0022F1
:1034600005E0014600222046FDF7A0FC0122294686
:103470002046BDE87040FDF799BC0000000C0140FB
:10348000FEE770B5002404F1B000C0B2002100F0E6
:1034900068F90021022000F064F90021102000F0FA
:1034A00060F900250121002000F05BF96D1CEDB2F0
:1034B000802DF7D3641CE4B2082CE4D370BD2DE951
:1034C000F04116461F460C460546B04215D1BC4297
:1034D00006D90FE0E1B2E8B200F04FF8641CA4B2E4
:1034E000BC42F7D1BDE8F081E1B2E8B200F045F8A6
:1034F000641EA4B2BC42F7D1F4E7A81BFDF792F812
:103500008046E01BFDF78EF84146FCF7B9FE804689
:10351000B54216D92EE0E1B2E8B200F02EF86D1CEB
:10352000ADB22846FDF787F84146FCF777FE07461F
:103530002046FDF780F83946FCF718FEFDF799F8AC
:1035400084B2B542E7D1CDE7E1B2E8B200F015F8B8
:103550006D1EADB22846FDF76EF84146FCF75EFEE3
:1035600007462046FDF767F83946FCF7FFFDFDF7F3
:1035700080F884B2B542E7D1B4E710B5CA0801F0CB
:103580000704114600F077F80120A040BDE8104084
:10359000C0B2012100F0E5B810B50021AE2000F066
:1035A000E0F80021022000F0DCF80021102000F0FB
:1035B000D8F80021402000F0D4F80021B02000F01D
:1035C000D0F80021812000F0CCF80021BF2000F0CD
:1035D000C8F80021A12000F0C4F80021A62000F0C6
:1035E000C0F80021A82000F0BCF800213F2000F026
:1035F000B8F80021C82000F0B4F80021D32000F072
:10360000B0F80021084600F0ACF80021D52000F009
:10361000A8F80021802000F0A4F80021D82000F0B4
:10362000A0F80021052000F09CF80021D92000F02E
:1036300098F800211F2000F094F80021DA2000F013
:1036400090F80021122000F08CF80021D82000F022
:1036500088F80021302000F084F800218D2000F04F
:1036600080F80021142000F07CF80021BDE8104013
:10367000AF2000F076B810B50446B031C8B20021D2
:1036800000F06FF8102040EA1410002100F069F8F3
:1036900004F00F00BDE8104040F00100002100F0F0
:1036A00060B800002DE9F041203A00240D46804624
:1036B000D6B27F2803D900208D1C8046EDB2102B96
:1036C000294610D0FFF7D7FF164906EB460001EB5D
:1036D00040050121285D00F044F8641CE4B2062C8A
:1036E000F7D3BDE8F081FFF7C6FF0F4F04EB0610DC
:1036F0000121385C00F035F8641CE4B2082CF5D3E5
:103700006D1CE9B24046FFF7B6FF002404EB06103B
:1037100038440121007A00F024F8641CE4B2082C3B
:10372000F4D3DEE7225400084A5600082DE9F041A0
:10373000984617460E46044600250DE0434631469E
:103740002046FFF7AFFF0834E4B2782C02D90024FA
:10375000B61CF6B26D1CEDB27A5D002AEED1BDE862
:10376000F08113B500294FF00101684602D000F046
:1037700097FB1CBD00F086FB1CBD00000F490E48E6
:103780006FF0090208600020C1E90102C860086109
:10379000886148620862C861486128310A220A606B
:1037A0000122C1E90120C86008618861486208629D
:1037B000C86148617047000044FDFFFFE000002041
:1037C0007047000070B504464FF07F554FF0FF3151
:1037D000FCF794FD0849A1EB64042146FCF71EFDAB
:1037E0002146FCF71BFD2946FCF715FD2146BDE8E7
:1037F0007040FCF713BD0000DF59375F7047FDF7DD
:10380000B9BD30B58FB028216846FCF7A4FC14215F
:103810000AA8FCF7A0FC01210804CDE9001000244F
:10382000029402250491CDE907504FF4E01009906D
:103830006846FDF723FF08B172B6FEE70F20CDE919
:103840000A054FF48060CDE90C4002210AA80E94CD
:10385000FDF728FE002801D072B6FEE70FB030BD9C
:10386000704700000148FEF7A1BA00008402002062
:10387000F0B50268164B174C174D4FF08047984231
:1038800005D0B84203D0A04201D0A84203D122F013
:1038900070064A683243984205D0B84203D0A0422D
:1038A00001D0A84203D122F44074CA6822434C6973
:1038B00022F08002224302608A68C2620A68826241
:1038C000984201D10969016301214161F0BD000005
:1038D000002C0140000400400008004010B501F039
:1038E0001F030121046A99408C430462016A9A40D3
:1038F0001143016210BD10B5846842EA032224F42A
:103900007F440A432243826010BD826822F0700225
:103910000A4342F0070181607047000030B5026A37
:1039200022F001020262026A4368846924F073058E
:103930000C682C4322F002058A682A430A4DA842EB
:103940000BD122F00805CA6823F440732A434D695D
:1039500022F004021D438B692B4343608461496854
:103960004163026230BD0000002C014030B5026AA4
:1039700022F010020262026A436884690D6824F42E
:10398000E64444EA05248D6822F0200242EA05124A
:103990000B4DA8420ED1CD6822F0800242EA0512FA
:1039A0004D6923F4406343EA85038D6922F04002A8
:1039B00043EA85034360846149688163026230BDE4
:1039C000002C014030B5026A22F480720262036A60
:1039D0004268C46923F4007324F073050C682C4317
:1039E0008D6843EA05230C4DA8420ED1CD6823F41F
:1039F000006343EA05234D6922F4405242EA05126E
:103A00008D6923F4806342EA05124260C46149680B
:103A1000C163036230BD0000002C014030B5026A72
:103A200022F480520262046A4268C3690D6823F47A
:103A3000E64343EA05238D6824F4005444EA053440
:103A4000064DA84204D14D6922F4804242EA851213
:103A50004260C36149680164046230BD002C0140CA
:103A600010B5036A046A24F001040462846924F036
:103A7000F00444EA021423F00A020A438461026259
:103A800010BD10B5036A23F0100303628369046A52
:103A900023F4704343EA023224F0A00343EA011105
:103AA0008261016210BD10B5406A0021C185C184E8
:103AB000FEF794FB10BD0168CA6822F49072CA60D8
:103AC00001684A6922F001024A61016B012904D1AF
:103AD0000168CA6822F01002CA60202180F83E10F6
:103AE00000210163704708B590F83E10222901D0EB
:103AF000022008BD82684FF480539A4201D10169C7
:103B000021B1816A9A421BD04AB10AE00268816AF7
:103B10005268C2F308020A80816A891C08E00269BF
:103B200072B10268526802F07F020A70816A491C11
:103B30008162C18D491E0904090CC18503D019E0B9
:103B400002685268F1E70168CA6822F02002CA6080
:103B50000168CA6822F48072CA6001684A6922F06A
:103B600001024A61202180F83E10016B012903D037
:103B7000FEF7AEFC002008BD002101630168CA68A1
:103B800022F01002CA6001680A68D20602D50A68EB
:103B900049680091818DFEF720FBEBE770B5044684
:103BA00000680169E26821F4405111430161216913
:103BB000A0680843616908432168CA6841F20C6340
:103BC0009A430243CA6020684169A26921F44071A6
:103BD000114341611E492068884202D1FDF708FD6A
:103BE00001E0FDF7F5FC00EBC00101EB001260689D
:103BF00064218000B2FBF0F3B3FBF1F36FF0180621
:103C00007343B2FBF0F5B2FBF0F605EB830532230C
:103C100003EB0515B5FBF1F5B6FBF1F605F0F00584
:103C200005EB0615B2FBF0F6B2FBF0F0B0FBF1F0DD
:103C30006FF01802504306EB800003EB0010B0FB5E
:103C4000F1F0216800F00F002844886070BD00008A
:103C5000003801402DE9F041984617460E460446CB
:103C6000069D1DE0681C1BD02DB1FDF7A5F8A0EB4B
:103C70000800A84214D92068C16821F4D071C1603D
:103C80002068416921F001014161202084F83D0054
:103C900084F83E00002084F83C000320BDE8F08159
:103CA0002068006836EA000004D00020B842D9D06D
:103CB0000020F3E70120F9E70148FEF791BA000080
:103CC000CC020020FEE700002DE9FC5F634C0D46AE
:103CD00004F1280B2062CBF82010D4F8188001469C
:103CE0005E464046FCF794FA074620612946B069D3
:103CF000FCF78EFA8246306127F0004058490027D1
:103D0000884200DA2761574928F00040564D884222
:103D10007EDAD4F810904846FCF7DEFC534A544B48
:103D2000FCF79FFB064688466069FCF7D5FC3246E7
:103D30004346FCF7EFFAFCF7E2FC804660615E4622
:103D40005146DBF81400FCF711FA706183464846CF
:103D5000E168FCF75DFA0090A068FCF763FC00994D
:103D6000FCF75CFAFCF7B8FC404A414BFCF7EBFB74
:103D7000CDE900016068FCF755FC4146FCF74EFABE
:103D800080462068FCF74EFC4946FCF747FA41465E
:103D9000FCF7ECF9FCF7A0FCDDE90023FCF7BAFA2C
:103DA000FCF77BFC606200905046F168FCF730FA4B
:103DB0008046B068FCF736FC4146FCF72FFA804697
:103DC0007068FCF72FFC5946FCF728FA83463068E8
:103DD000FCF728FC5146FCF721FA5946FCF7C6F9D6
:103DE0004146FCF7C3F9FCF72BFC7062C4F80C9059
:103DF0000146C6F80CA00098084441F287312860BB
:103E0000884200DD08461B492860884202DA00E04B
:103E100019E008462860002805DD02211648FFF752
:103E200003FB022104E001211348FFF7FDFA012101
:103E30001248FFF7F9FA2868002800DA40422860A3
:103E4000962801DD01E02F602F600D492868E061B0
:103E50000A68506309688863BDE8FC9FE0000020A1
:103E6000CDCCCC3D00004842640000207B14AE471E
:103E7000E17A843F79ECFFFFC0000020D0000020F1
:103E8000840200200EB5642289B28DE80700012368
:103E9000002278210148FDF781F90EBDA001002024
:103EA0000EB5642289B28DE80700012340227821F3
:103EB0000148FDF773F90EBDA00100200FB4084BB7
:103EC00010B504A902AA039800F08AF9044602A9D1
:103ED000002000F008FD204610BC5DF814FB000037
:103EE000E7480008490050EAC12018BF04204A0DE5
:103EF00018BF40F0010040F2FF72B2EB515F08BF03
:103F000040F00200012808BF052070474100080268
:103F100018BF04200A0E18BF40F001004FF07F4286
:103F200032EA010108BF40F00200012808BF052065
:103F300070470907090E002804DB00F1E02080F833
:103F40000014704700F00F0000F1E02080F8141D0D
:103F500070472DE9F0414F1E00EBC7010446D1E93F
:103F6000000115461E4637F006020DD02A4633469C
:103F7000FCF777FA7F1E04EBC703D3E90023FCF7B5
:103F8000C9F937F00602F1D1022F25D0042F13D042
:103F9000062F18BFBDE8F0812A463346FCF761FAC8
:103FA000D4E90A23FCF7B6F92A463346FCF759FA56
:103FB000D4E90823FCF7AEF92A463346FCF751FA58
:103FC000D4E90623FCF7A6F92A463346FCF749FA5A
:103FD000D4E90423FCF79EF92A463346FCF741FA5C
:103FE000D4E90223FCF796F92A463346FCF739FA5E
:103FF000D4E90023BDE8F041FCF78CB90122FCF7BD
:1040000096BCFCF787B90022134610461146FCF710
:104010009ABA0000024A00201107FCF788BC000091
:1040200001FDFFFFFCF7A2B86FF05E010807FCF787
:1040300065B902E008C8121F08C1002AFAD170470A
:104040007047002001E001C1121F002AFBD1704718
:1040500001490860704700007C0000202DE9FF5FE7
:1040600082B00021DDE90430020DDDF840B00343E9
:1040700018D044F61050A2F2FF32424315141198A2
:1040800001281FD0A5EB0B00401C5FEA000A4FF08F
:1040900000064E4FDFF83891B046504615D5CAF1AC
:1040A000000413E0119801244AA3012801D16FEA0A
:1040B0000B010298119AC0E90031C0E9024206B032
:1040C000BDE8F09FCBF10000DFE704460021404A45
:1040D000491842EB0450CDE9001012E0E00707D088
:1040E00032463B4640464946FCF7BBF98046894686
:1040F00032463B4610461946FCF7B3F906460F46D2
:104100006410002CEAD1DDE90401DDE90023BAF1F5
:10411000000F06DAFCF7A5F942464B46FCF7A1F979
:1041200005E0FCF710FA42464B46FCF70CFA044651
:104130000E460022284BFCF741FC03D84FF0FF301D
:10414000014607E00022254B20463146FCF7E2F805
:10415000FCF704FC102409E0002C0ADB0A220023EF
:10416000FCF7FFFA039B30321A55641E50EA010235
:10417000F2D1641C039AC4F111031444119A012A68
:1041800003D0012208430DD10AE0084304D00020E7
:104190004FF0110B119072E7A3EB0B056D1E0DE0B4
:1041A0005B4504DD4FF0000205F1010504E003DA90
:1041B0004FF00002A5F10105002AECD002981199F8
:1041C000C0E90231C0E9004579E700000000144071
:1041D0000000F03F300000000000F0430000E03F2E
:1041E0002DE9FF4F95B09A46884606460025EEE138
:1041F000252877D100242746F94A0121039400E0BD
:10420000044316F8013F203B01FA03F01042F7D1B6
:1042100030782A2811D06FF02F033078A0F13002C7
:10422000092A16D8039A44F0020402EB820203EB37
:1042300042021044761C0390EFE758F8042B0392D7
:10424000002A03DA504244F40054039044F002047C
:10425000761C30782E2816D116F8010F44F004048D
:104260002A280DD06FF02F023078A0F13003092BEF
:1042700009D807EB870302EB4303C718761CF3E763
:1042800058F8047B761C30786C280FD006DC4C285C
:1042900017D068280DD06A2814D104E0742810D0F3
:1042A0007A280FD10DE044F400140AE044F480149D
:1042B00001E044F440147278824202D104F5801483
:1042C000761C761C307866280BD013DC582877D003
:1042D00009DC002875D04528F6D04628F4D04728B8
:1042E0001AD193E118E0632835D0642879D0652885
:1042F00012D18BE1702873D008DC6728F1D06928CF
:104300006FD06E280DD06F2806D1ACE073282CD06A
:10431000752874D0782853D05246179990476D1C51
:1043200054E1C4F30250022809D003280DD0D8F874
:10433000001004280DD00D6008F1040846E1D8F8FB
:104340000010EA17C1E90052F6E7D8F800100D8016
:10435000F2E70D70F0E718F8041B8DF8001000204C
:104360008DF80100EB46012003E058F804BB4FF044
:10437000FF3061074FF0000102D40DE009F10101A7
:104380008946B9420FDA8145F8DB1BF8091000298C
:10439000F4D108E009F1010189468142FADB1BF8FA
:1043A00009100029F6D103985346A0EB09072146CE
:1043B0003846179A00F080FA284400EB090507E018
:1043C00044E008E10DE01BF8010B524617999047B5
:1043D000B9F10109F7D2534621463846179AF2E05F
:1043E00039E00A21C4F302524FF0000B0091022A77
:1043F00006D058F8040BC117032A09D00AE023E0BD
:1044000008F1070020F00702F2E80201904605E0FB
:1044100000B2C117042A01D140B2C117002906DA3F
:104420000A460021404261EB02012D2202E02205F2
:1044300004D52B228DF80420012203E0E20701D0ED
:104440002022F7E7914657E00A2100E010214FF0C3
:10445000000B00910BE010214FF0000B44F004041E
:104460000827009103E008204FF0000B0090C4F3F0
:104470000252022A05D058F8040B0021032A08D062
:1044800008E008F1070020F00702F2E80201904678
:1044900003E080B2042A00D1C0B24FF00009220725
:1044A0002AD53278702A07D0DDF800C08CF0100CC5
:1044B0005CEA0B0C05D00EE040228DF804200122AE
:1044C00008E050EA010306D030238DF804308DF85F
:1044D000052002229146009B83F0080353EA0B0358
:1044E0000AD150EA010201D1620705D530228DF8C8
:1044F00004204FF001097F1E3278582A04D039A2D7
:104500000C920CAA02920BE03BA2F9E75B46009AE0
:10451000FCF727F90C9B9B5C029A521E02921370C7
:1045200050EA0102F2D1029804A9081A00F1200B06
:10453000600702D524F4803400E001275F4502DDE6
:10454000A7EB0B0000E0002000EB0B0100900398AC
:104550004944401A0390E00306D453462146179A73
:10456000039800F0A9F90544002706E001A8524687
:10457000C05D179990476D1C7F1C4F45F6DBE0032B
:104580000CD553462146179A039800F095F9054437
:1045900004E030205246179990476D1C0099481E40
:1045A00000900029F5DC08E0029802995246007854
:1045B000491C0291179990476D1CBBF10001ABF1AA
:1045C000010BF1DC5BE100F065F90544761C307805
:1045D00000287FF40DAE19B02846BDE8F08F00002A
:1045E00009280100303132333435363738396162C9
:1045F000636465660000000030313233343536378D
:10460000383941424344454600000000600700D469
:10461000062708F1070020F00700F0E80223804693
:1046200003F0004C5FEA0C0001D097A009E02005E0
:1046300001D596A005E0E00701D095A001E0AFF21A
:104640004C001390307823F0004365280CD006DC32
:10465000452809D046281DD047287FD13BE0662851
:1046600018D067287AD136E00021112F01DB112004
:1046700000E0781CCDE9000104A90CA8FFF7EEFCCE
:10468000DDE90D010C9A4FF0000B07F101091092C2
:1046900000914EE04FF000400097CDE9011004A9D1
:1046A0000CA8FFF7DBFCDDE90D020C9B0F994FF026
:1046B000000B91461093009211B9791C00EB01098F
:1046C000B7EB090003D4C0F1FF3B07F10109A9EBE7
:1046D0000700019042E0012F00DA01270021112F8D
:1046E00001DD112000E03846CDE9000104A90CA845
:1046F000FFF7B4FCDDE90D010C9A00914FF0000BBF
:10470000B946109221070FD4009A4A4503DA914620
:1047100001E0A9F10109B9F1010F05DD109AA9F134
:104720000101515C3029F4D0B84202DA10F1040FD3
:1047300003DA0121CDE9011010E0002803DC8344F5
:10474000A9EB000102E0411C494500DD8946A0EBD0
:104750000B00401C01904FF000400290200705D450
:104760000198484502DB4FF0FF30019000208DF8A2
:104770004B0002980DF14B07B0F1004F25D00220FD
:104780000C902B200D90029800280CDA40420290E9
:104790002D200D9007E00A210298FBF7CCFF303165
:1047A000029007F8011D0C99481E0C900029F2DCBC
:1047B00002980028EFD1791E0D980870307800F02B
:1047C000200040F0450007F8020D11A8C01BC01DD5
:1047D00002901398007800B1012000EB09010198C4
:1047E00001EBE071029801440398401A401E0390C7
:1047F000E00306D453462146179A039800F05CF86C
:1048000005441398007818B15246179990476D1CCB
:10481000E00323D553462146179A039800F04CF83D
:1048200005441BE0BBF1000F07DB0098584504DD91
:104830001098179910F80B0001E017993020524694
:10484000904701980BF1010B401E05F10105019005
:1048500004D12E205246179990476D1CB9F10001E2
:10486000A9F10109DEDC05E017F8010B52461799A2
:1048700090476D1C0299481E02900029F4DC5346B3
:104880002146179A03989EE62D0000002B00000099
:10489000200000002DE9F041044600251E46174681
:1048A000880404D405E039462020B0476D1C641EFE
:1048B000F9D52846BDE8F0812DE9F04104460025F0
:1048C0001E469046C80301D5302700E02027880403
:1048D00004D505E041463846B0476D1C641EF9D545
:1048E0002846BDE8F0810A68531C0B6010707047C1
:1048F00030B4002101724172017881724178C17235
:1049000081780173C1784173002105E04268431842
:10491000525C491C9A73C9B2C2788A42F6D8002107
:10492000141D08E04518491CAD7AC9B22B44037226
:10493000457A2B444372037A8C42F3D800F10E017E
:104940005354C378491C427A5A54C278FF23491FF2
:1049500030BC0248921DFDF7BDBD0000CC02002016
:104960002DE9F04D8D4F21F0004A86B005460C46EA
:10497000BA452ADBAAEB070028430AD088488245BB
:1049800001DC1AD1CDB106B02846BDE8F04DFFF7E5
:1049900035BB844A844B2846FBF763FD07460E4629
:1049A000824A834B28462146FBF75BFD06B03A4618
:1049B0003346BDE8F04DFBF7ADBC0120FFF748FBE7
:1049C00006B0BDE8F04DFFF71EBB7A48824542DADB
:1049D000BAF1795F0BDA2846FFF784FA042808BF9A
:1049E000FFF718FB284606B02146BDE8F08D2A46A1
:1049F0000B461046FBF735FD834602466E480E46D1
:104A00000B4606217844FFF7A4FA5A463346FBF7D3
:104A100028FD804669488A465A4633460421784430
:104A2000FFF797FA5A463346FBF71BFD00223B4639
:104A3000FBF770FC02460B4640465146FBF783FDF0
:104A40002A462346FBF70DFD06B02A462346BDE85D
:104A5000F04DFBF75FBC284624F0004100223D46A4
:104A60003B46FBF7FBFC4FF0FF32FBF760FF0646CF
:104A7000024653480F460B4606217844FFF769FA71
:104A800032463B46FBF7EDFCCDE900014D4832468E
:104A90003B4604217844FFF75CFA32463B46FBF77D
:104AA000E0FC00222B46FBF735FC834602913046A2
:104AB000394600F090FC804643480D46504517DCCF
:104AC000DDE900015A46029BFBF73DFD42462B46BD
:104AD000FBF7C7FC42462B46FBF71CFC0122FBF709
:104AE00026FF304A304BFBF7B6FC304A304B4CE0E7
:104AF0004FF0000A52460B464046FBF70BFCCDE94F
:104B0000031052462B4610461946FBF7AAFC3246C4
:104B10003B46FBF7A3FCDDE90332FBF714FD064639
:104B20000F46DDE900015A46029BFBF70CFD834668
:104B30000091012230463946FBF7F9FE194A1A4B1B
:104B4000FBF78CFC06460F46012240462946FBF740
:104B5000EEFE5A46009BFBF784FC32463B46FBF7D1
:104B60007AFC06460F46012250462946FBF7DFFE37
:104B70000E4DDFF858802A464346FBF76FFC32465D
:104B80003B46FBF76BFC2A464346FBF767FC002CD1
:104B9000D8BF81F0004106B0BDE8F08D0000F03FC5
:104BA0000000F07F075C143326A6913C182D445476
:104BB000FB21F93F0000E03F5012000066120000A8
:104BC000DA110000F01100003333EF3FFB21E93F21
:104BD0002DE9F84F04460D4621F00040009173493D
:104BE000814211DC7249884201DC06D12CB1204699
:104BF0002946BDE8F84FFFF701BA6E48002DCCBF3B
:104C00006D496E49BDE8F88F6D49814211DD6D49EE
:104C10008142D8BF4FF0FF366DDD20462946FFF7B1
:104C200061F9042808BFFFF7F5F920462946BDE8D9
:104C3000F88F6549654F25F00045814233DD6449B1
:104C4000814219DD002632464FF080432046294636
:104C5000FBF760FB80468A46012220462946FBF787
:104C600066FE00223B46FBF7F6FB42465346FBF747
:104C70006AFC04460D463EE001260022BA463B4649
:104C800020462946FBF746FB80460F460022534646
:104C900020462946FBF7DFFB42463B46FBF753FC29
:104CA00004460D4627E04B4981421BDDDFF828A171
:104CB00002260022534620462946FBF7D2FB00225B
:104CC0003B46FBF727FB80460F4600225346204613
:104CD0002946FBF7C0FB42463B46FBF734FC044643
:104CE0000D4608E0032622462B4600203B49FBF7F1
:104CF0002AFC04460D4622462B4610461946FBF771
:104D0000B0FB8B46824602460B46FBF7AAFB0746E2
:104D10000246334888460B4606217844FFF719F9C6
:104D200052465B46FBF79DFB82462E488B463A4631
:104D3000434605217844FFF70CF93A464346FBF712
:104D400090FB02460B46002E504659460CDAFBF704
:104D5000E1FA22462B46FBF784FB01B022462B46A4
:104D6000BDE8F04FFBF77ABBFBF7D4FA22462B469F
:104D7000FBF777FB1C4A7A4402EBC603D3E9002316
:104D8000FBF769FB22462B46FBF765FB174A7A4483
:104D900002EBC603D3E90023FBF760FB009A002A6D
:104DA000B8BF81F00041BDE8F88F0000000010445A
:104DB0000000F07F182D4454FB21F93FFB21F9BF7F
:104DC0000000DC3F0000203E0000F33F0000F03F09
:104DD0000000E63F008003400000F83F0000F0BF05
:104DE000F20F0000B00F00004E0F0000160F000081
:104DF0002DE9F04D9446CCF1000423F000464CEA36
:104E00000404594F46EAD4749A46884621F0004279
:104E1000BC4206D8454240EA050442EAD474BC428A
:104E200004D9BDE8F04D6246FFF7EBB8AAF1405552
:104E3000A5F17F6555EA0C040BD0022404EAAA749C
:104E40004A4DDFF82CE144EAD87452EA000B04D052
:104E50000CE0BDE8F04DFFF7BBBE002C14BF012CE9
:104E6000BDE8F08D022C30D0032C32D056EA0C0B6A
:104E70000AD0BE4220D1BA4209D126F0804622F0A3
:104E800080423346114617E000291ADB25E0DFF89F
:104E9000E4B0FB44002C04BFDBE90001BDE8F08D69
:104EA000012C02BFDBE9000181F00041BDE8F08D7B
:104EB000022C0AD0032C0CD0BA4212D1B8F1000F48
:104EC0000BDA2A482C49BDE8F08D28462B49BDE86D
:104ED000F08D28467146BDE8F08D24482849BDE88C
:104EE000F08D921B12153C2AC4BF204F244E10DCBB
:104EF000BAF1000FBEBF12F13C0F00273E4608DB9F
:104F00006246FBF720FB21F00041FFF761FE0746F8
:104F10000E4694B1012C08BF86F000460DD0194A08
:104F2000194B022C3846314615D0FBF794FA2A4625
:104F3000BDE8F04D114BFBF78EBA00221346384600
:104F40003146FBF723FD04BF0220FFF781F8384606
:104F50003146BDE8F08DFBF77EFA2A46BDE8F04DFC
:104F6000064BFBF77BBA00000000F07F182D44547D
:104F7000FB2109C0AA0E0000FB21F9BFFB2109405B
:104F8000FB21F93F075C143326A6A13C2DE9F0472D
:104F90004FF0684202EB40030C460546B3F1654F03
:104FA0003CBF02EB4102B2F1654F80F0CD8000BF03
:104FB000C0F3C752C1F3C753D21A1B2A06DD10F043
:104FC000004F14BF87488848BDE8F08712F11A0FD8
:104FD0002FDA11F0004F06D010F0004F0CBF8348BD
:104FE0008348BDE8F08721462846FBF749F9064685
:104FF000FEF78CFF042808BFFFF716F82846FEF7D7
:1050000085FF05462046FEF781FF04463046FEF741
:105010007DFF042D18BF052D08D1042C18BF052CC9
:1050200004D1002804BF0220FFF712F83046BDE883
:10503000F0874200B2EB410F25D910F0004F19BFA5
:105040006C4F6D4E6D4F6E4E224685F000441546F6
:105050000A4680F0004110460A1A5200B2F1807FE1
:105060003ED248406749DFF8A0A110F0004F18D0A9
:105070004FF03F483846FBF7CBF8074651463046DD
:10508000FBF7C6F817E011F0004F04BF00263746C3
:10509000E2D010F0004F19BF5C4F5D4E5D4F5E4E89
:1050A000DAE74FF07C583846FBF760F80746514680
:1050B0003046FBF75BF8064641462846FBF7AEF85C
:1050C0002146FBF753F8824621464046FBF7A6F8F7
:1050D0002946FBF7A0F85146FBF7D2F8044604E056
:1050E00021462846FBF7CCF804460146FBF796F824
:1050F00080464A49FBF792F84949FBF737F84146A1
:10510000FBF78CF84749FBF731F84146FBF786F887
:105110004549FBF72BF84146FBF780F84349FBF77D
:1051200025F8054641462046FBF778F82946FBF767
:1051300075F83146FBF71AF82146FBF717F83946A0
:10514000BDE8F047FBF712B84FF07F42B2EB400FDB
:1051500028BFB2EB410F03D2BDE8F047FEF762BFB4
:1051600040EA01035B0008BF44F0FF410AD0B2EB04
:10517000400F08BFB2EB410F06D125F0804024F06C
:10518000804105460C4613E7B2EB400F12BF5FEAC1
:10519000410345F0FF4004F000413FF409AFB2EB9A
:1051A000410F12BF5FEA400205F0004044F0FF41AA
:1051B0003FF4FEAE4A0092EA40033FF5F9AE002A02
:1051C000ACBF4FF09F464FF03E563146FBF726F8F6
:1051D000054631462046FBF721F80446284621467D
:1051E000E6E60000DB0FC9BFDB0FC93FDB0F49401C
:1051F000DB0F49C00000C9BF22AAFDB90000C93FAA
:1052000022AAFD390060ED3EC30ACE37000049C036
:1052100022AA7DBA0000494022AA7D3A2DAD65BD83
:105220008FB8D53D0FB511BE61C84C3EA8AAAABE25
:105230002DE9F0418846044601690068FAF796FFB7
:10524000606005466169FAF791FF01462846FBF761
:1052500017F8E060A768064639464046FAF7D8FFD7
:105260003146FAF7DBFF3946FAF780FFA060314696
:105270004FF07E50FAF7CCFF2946FAF7CFFF2060B7
:10528000BDE8F08108B5FCF77DF8FEF7BAFAFDF746
:1052900007FFFDF79DFFFDF7D1FFFEF703F8FDF7D0
:1052A00077FFFDF755FFFEF753F8FEF767FAFDF7B6
:1052B0004DFEFEF76BF86420FBF76EFCFEF76CF911
:1052C000FEF7DFF8234D4FF4005421462846FBF744
:1052D00065FD0121142302220846FEF7F0F8A146DD
:1052E000A8461D4E1D4CDFF878A01E4DF127322038
:1052F000FBF752FC49464046FBF750FD7068FBF750
:10530000EBF902460B4618A11A48FEF7D7FD00211B
:105310001C23184A0846FEF709FA17A11548226807
:10532000FEF7CCFD1C23134A01210020FEF7FEF9F5
:1053300070685146FAF772FFFBF782F902B20097E4
:10534000288803B2A88C01B2208800B200F01AF8B5
:10535000CDE700000010014098000020640000200C
:105360000000C842E0000020726F6C6C3A25332EBA
:1053700032660000300100206F75747075743A2534
:105380003564000030B591B0AA25149C8DF800500A
:10539000FF258DF801508DF8024008248DF8034058
:1053A0008DF83C00000A8DF83D000FAC8DF83E10E2
:1053B000080A01948DF83F008DF84020100A8DF8FE
:1053C00041008DF84230180A8DF843006846FFF717
:1053D0008FFA11B030BD2DE9F04106460F46FBF7BC
:1053E00017FB041E0D4618BF0120284320F0004083
:1053F000C0F17F6000F1E040C00F0ED0301C18BF3C
:105400000120384320F00040C0F17F6000F1E0400F
:10541000C00F04BF0120FEF71BFE20462946BDE851
:10542000F0810000000000000000002F00000000DC
:105430000700070000147F147F1400242A7F2A121B
:10544000006264081323003649552250000005030A
:10545000000000001C224100000041221C0000143A
:10546000083E08140008083E0808000000A060007C
:10547000000808080808000060600000002010080C
:105480000402003E5149453E0000427F4000004278
:1054900061514946002141454B31001814127F10DB
:1054A000002745454539003C4A494930000171090A
:1054B000050300364949493600064949291E0000BE
:1054C0003636000000005636000000081422410065
:1054D0000014141414140000412214080002015195
:1054E000090600324959513E007C1211127C007F9E
:1054F00049494936003E41414122007F4141221C39
:10550000007F49494941007F09090901003E41499D
:10551000497A007F0808087F0000417F4100002091
:1055200040413F01007F08142241007F404040403D
:10553000007F020C027F007F0408107F003E414183
:10554000413E007F09090906003E4151215E007F6E
:10555000091929460046494949310001017F0101E5
:10556000003F4040403F001F2040201F003F403888
:10557000403F0063140814630007087008070061C7
:105580005149454300007F41410000552A552A55A5
:10559000000041417F00000402010204004040403D
:1055A0004040000001020400002054545478007F61
:1055B0004844443800384444442000384444487F38
:1055C00000385454541800087E0901020018A4A49D
:1055D000A47C007F080404780000447D4000004063
:1055E00080847D00007F102844000000417F40003F
:1055F000007C04180478007C0804047800384444D3
:10560000443800FC242424180018242418FC007CAE
:105610000804040800485454542000043F44402027
:10562000003C4040207C001C2040201C003C4030BE
:10563000403C004428102844001CA0A0A07C00444A
:1056400064544C441414141414140000000000009A
:1056500000000000000000000000000000F8000052
:105660000000000000333000000000100C06100C99
:105670000600000000000000000040C07840C07834
:105680004000043F04043F040400007088FC08301C
:105690000000001820FF211E0000F008F000E018B4
:1056A000000000211C031E211E0000F0088870006D
:1056B00000001E2123241927211010160E000000BF
:1056C00000000000000000000000000000E01804DE
:1056D0000200000000071820400000020418E0004B
:1056E00000000040201807000000404080F080408B
:1056F00040000202010F01020200000000F0000061
:1057000000000101011F0101010000000000000074
:10571000000080B0700000000000000000000000E9
:105720000000000101010101010100000000000072
:105730000000003030000000000000000000806029
:105740001804006018060100000000E010080810AE
:10575000E000000F102020100F00001010F80000D3
:1057600000000020203F202000000070080808886A
:10577000700000302824222130000030088888483A
:1057800030000018202020110E000000C02010F86A
:10579000000000070424243F240000F8088888083B
:1057A00008000019212020110E0000E01088881840
:1057B0000000000F112020110E0000380808C83822
:1057C00008000000003F0000000000708808088802
:1057D0007000001C222121221C0000E0100808108B
:1057E000E0000000312222110F00000000C0C000C4
:1057F00000000000003030000000000000800000C9
:1058000000000000806000000000000080402010C8
:1058100008000001020408102000404040404040C1
:105820004000040404040404040000081020408024
:105830000000002010080402010000704808080859
:10584000F0000000003036010000C030C828E81029
:10585000E0000718272423140B000000C038E000E4
:105860000000203C23020227382008F8888888702E
:105870000000203F202020110E00C030080808083A
:105880003800071820202010080008F80808081021
:10589000E000203F202020100F0008F88888E8084A
:1058A0001000203F20202320180008F88888E808EE
:1058B0001000203F200003000000C0300808083816
:1058C000000007182020221E020008F80800000827
:1058D000F808203F210101213F20000808F80808AE
:1058E00000000020203F2020000000000808F808E9
:1058F0000800C08080807F00000008F888C0281859
:105900000800203F20012638200008F80800000089
:105910000000203F20202020300008F8F800F8F890
:105920000800203F003F003F200008F830C000087A
:10593000F808203F200007183F00E0100808081072
:10594000E0000F10202020100F0008F808080808B9
:10595000F000203F210101010000E01008080810BC
:10596000E0000F18242438504F0008F888888888F1
:105970007000203F2000030C3020007088080808C9
:1059800038000038202121221C00180808F80808D7
:1059900018000000203F2000000008F80800000860
:1059A000F808001F202020201F000878880000C869
:1059B0003808000007380E010000F80800F8000859
:1059C000F800033C0700073C030008186880806863
:1059D000180820302C03032C30200838C800C838A1
:1059E00008000000203F2000000010080808C83808
:1059F00008002038262120201800000000FE0202A6
:105A000002000000007F40404000000C30C0000059
:105A10000000000000010638C00000020202FE0083
:105A20000000004040407F0000000000040202022D
:105A30000400000000000000000000000000000062
:105A4000000080808080808080800002020400004E
:105A50000000000000000000000000008080808046
:105A600000000019242222223F2008F80080800034
:105A70000000003F112020110E00000000808080F7
:105A80000000000E112020201100000000808088FE
:105A9000F800000E112020103F2000008080808040
:105AA0000000001F222222221300008080F088883C
:105AB00088180020203F2020000000008080808087
:105AC0008000006B94949493600008F800808080BC
:105AD0000000203F210000203F2000809898000017
